{
  "contractName": "lottery",
  "abi": [
    {
      "inputs": [],
      "stateMutability": "nonpayable",
      "type": "constructor"
    },
    {
      "inputs": [],
      "name": "manager",
      "outputs": [
        {
          "internalType": "address",
          "name": "",
          "type": "address"
        }
      ],
      "stateMutability": "view",
      "type": "function"
    },
    {
      "inputs": [
        {
          "internalType": "uint256",
          "name": "",
          "type": "uint256"
        }
      ],
      "name": "participants",
      "outputs": [
        {
          "internalType": "address payable",
          "name": "",
          "type": "address"
        }
      ],
      "stateMutability": "view",
      "type": "function"
    },
    {
      "stateMutability": "payable",
      "type": "receive"
    },
    {
      "inputs": [],
      "name": "CheckBalance",
      "outputs": [
        {
          "internalType": "uint256",
          "name": "",
          "type": "uint256"
        }
      ],
      "stateMutability": "view",
      "type": "function"
    },
    {
      "inputs": [],
      "name": "random",
      "outputs": [
        {
          "internalType": "uint256",
          "name": "",
          "type": "uint256"
        }
      ],
      "stateMutability": "view",
      "type": "function"
    },
    {
      "inputs": [],
      "name": "selectWinner",
      "outputs": [],
      "stateMutability": "nonpayable",
      "type": "function"
    }
  ],
  "bytecode": "0x608060405234801561001057600080fd5b50336000806101000a81548173ffffffffffffffffffffffffffffffffffffffff021916908373ffffffffffffffffffffffffffffffffffffffff160217905550610747806100606000396000f3fe60806040526004361061004e5760003560e01c806333a99e04146100d057806335c1d349146100e757806344e73b7814610124578063481c6a751461014f5780635ec01e4d1461017a576100cb565b366100cb57670de0b6b3a7640000341461006757600080fd5b6001339080600181540180825580915050600190039060005260206000200160009091909190916101000a81548173ffffffffffffffffffffffffffffffffffffffff021916908373ffffffffffffffffffffffffffffffffffffffff1602179055005b600080fd5b3480156100dc57600080fd5b506100e56101a5565b005b3480156100f357600080fd5b5061010e60048036038101906101099190610506565b610326565b60405161011b9190610574565b60405180910390f35b34801561013057600080fd5b50610139610365565b604051610146919061059e565b60405180910390f35b34801561015b57600080fd5b506101646103c6565b60405161017191906105da565b60405180910390f35b34801561018657600080fd5b5061018f6103ea565b60405161019c919061059e565b60405180910390f35b60008054906101000a900473ffffffffffffffffffffffffffffffffffffffff1673ffffffffffffffffffffffffffffffffffffffff163373ffffffffffffffffffffffffffffffffffffffff16146101fd57600080fd5b6003600180549050101561021057600080fd5b600061021a6103ea565b9050600080600180549050836102309190610624565b90506001818154811061024657610245610655565b5b9060005260206000200160009054906101000a900473ffffffffffffffffffffffffffffffffffffffff1691508173ffffffffffffffffffffffffffffffffffffffff166108fc610295610365565b9081150290604051600060405180830381858888f193505050501580156102c0573d6000803e3d6000fd5b50600067ffffffffffffffff8111156102dc576102db610684565b5b60405190808252806020026020018201604052801561030a5781602001602082028036833780820191505090505b5060019080519060200190610320929190610424565b50505050565b6001818154811061033657600080fd5b906000526020600020016000915054906101000a900473ffffffffffffffffffffffffffffffffffffffff1681565b60008060009054906101000a900473ffffffffffffffffffffffffffffffffffffffff1673ffffffffffffffffffffffffffffffffffffffff163373ffffffffffffffffffffffffffffffffffffffff16146103c057600080fd5b47905090565b60008054906101000a900473ffffffffffffffffffffffffffffffffffffffff1681565b60004442600180549050604051602001610406939291906106d4565b6040516020818303038152906040528051906020012060001c905090565b82805482825590600052602060002090810192821561049d579160200282015b8281111561049c5782518260006101000a81548173ffffffffffffffffffffffffffffffffffffffff021916908373ffffffffffffffffffffffffffffffffffffffff16021790555091602001919060010190610444565b5b5090506104aa91906104ae565b5090565b5b808211156104c75760008160009055506001016104af565b5090565b600080fd5b6000819050919050565b6104e3816104d0565b81146104ee57600080fd5b50565b600081359050610500816104da565b92915050565b60006020828403121561051c5761051b6104cb565b5b600061052a848285016104f1565b91505092915050565b600073ffffffffffffffffffffffffffffffffffffffff82169050919050565b600061055e82610533565b9050919050565b61056e81610553565b82525050565b60006020820190506105896000830184610565565b92915050565b610598816104d0565b82525050565b60006020820190506105b3600083018461058f565b92915050565b60006105c482610533565b9050919050565b6105d4816105b9565b82525050565b60006020820190506105ef60008301846105cb565b92915050565b7f4e487b7100000000000000000000000000000000000000000000000000000000600052601260045260246000fd5b600061062f826104d0565b915061063a836104d0565b92508261064a576106496105f5565b5b828206905092915050565b7f4e487b7100000000000000000000000000000000000000000000000000000000600052603260045260246000fd5b7f4e487b7100000000000000000000000000000000000000000000000000000000600052604160045260246000fd5b6000819050919050565b6106ce6106c9826104d0565b6106b3565b82525050565b60006106e082866106bd565b6020820191506106f082856106bd565b60208201915061070082846106bd565b60208201915081905094935050505056fea2646970667358221220fb8a083b100c3921fd518162c0191107e6fa0239b46f7d5270a1c2b2005f79f464736f6c634300080d0033",
  "immutableReferences": {},
  "source": "// SPDX-License-Identifier: UNLICENCED\npragma solidity >=0.5.0 < 0.9.0;\n    contract lottery\n    {\n        address public manager;\n        address payable[] public participants;\n        constructor()\n        {\n              manager = msg.sender;\n        }\n        receive() external payable\n        {\n            require(msg.value==1 ether);\n            participants.push(payable(msg.sender));\n        }\n        function CheckBalance() public view returns(uint)\n        {\n\n         require(msg.sender==manager);\n         return address(this).balance;\n        }\n        function random() public view returns(uint)\n        {\n        return uint(keccak256(abi.encodePacked(block.difficulty,block.timestamp,participants.length)));\n    \n        }\n        function selectWinner() public\n        {\n            require(msg.sender==manager);\n            require(participants.length>=3);\n            uint r = random();\n            address payable winner;\n            uint index = r % participants.length;\n            winner = participants[index];\n            winner.transfer(CheckBalance());\n            participants=new address payable[](0);\n\n        }\n\n    }\n",
  "sourcePath": "/Users/amit/Desktop/LOTTERYDAP/web/contracts/lottery.sol",
  "compiler": {
    "name": "solc",
    "version": "0.8.13+commit.abaa5c0e.Emscripten.clang"
  },
  "schemaVersion": "3.4.7",
  "updatedAt": "2022-05-07T13:52:08.940Z",
  "devdoc": {
    "kind": "dev",
    "methods": {},
    "version": 1
  },
  "userdoc": {
    "kind": "user",
    "methods": {},
    "version": 1
  }
}